{
  "_format": "hh-sol-artifact-1",
  "contractName": "NFT",
  "sourceName": "contracts/NFT.sol",
  "abi": [
    {
      "inputs": [],
      "stateMutability": "nonpayable",
      "type": "constructor"
    },
    {
      "inputs": [
        {
          "internalType": "address",
          "name": "sender",
          "type": "address"
        },
        {
          "internalType": "uint256",
          "name": "tokenId",
          "type": "uint256"
        },
        {
          "internalType": "address",
          "name": "owner",
          "type": "address"
        }
      ],
      "name": "ERC721IncorrectOwner",
      "type": "error"
    },
    {
      "inputs": [
        {
          "internalType": "address",
          "name": "operator",
          "type": "address"
        },
        {
          "internalType": "uint256",
          "name": "tokenId",
          "type": "uint256"
        }
      ],
      "name": "ERC721InsufficientApproval",
      "type": "error"
    },
    {
      "inputs": [
        {
          "internalType": "address",
          "name": "approver",
          "type": "address"
        }
      ],
      "name": "ERC721InvalidApprover",
      "type": "error"
    },
    {
      "inputs": [
        {
          "internalType": "address",
          "name": "operator",
          "type": "address"
        }
      ],
      "name": "ERC721InvalidOperator",
      "type": "error"
    },
    {
      "inputs": [
        {
          "internalType": "address",
          "name": "owner",
          "type": "address"
        }
      ],
      "name": "ERC721InvalidOwner",
      "type": "error"
    },
    {
      "inputs": [
        {
          "internalType": "address",
          "name": "receiver",
          "type": "address"
        }
      ],
      "name": "ERC721InvalidReceiver",
      "type": "error"
    },
    {
      "inputs": [
        {
          "internalType": "address",
          "name": "sender",
          "type": "address"
        }
      ],
      "name": "ERC721InvalidSender",
      "type": "error"
    },
    {
      "inputs": [
        {
          "internalType": "uint256",
          "name": "tokenId",
          "type": "uint256"
        }
      ],
      "name": "ERC721NonexistentToken",
      "type": "error"
    },
    {
      "anonymous": false,
      "inputs": [
        {
          "indexed": true,
          "internalType": "address",
          "name": "owner",
          "type": "address"
        },
        {
          "indexed": true,
          "internalType": "address",
          "name": "approved",
          "type": "address"
        },
        {
          "indexed": true,
          "internalType": "uint256",
          "name": "tokenId",
          "type": "uint256"
        }
      ],
      "name": "Approval",
      "type": "event"
    },
    {
      "anonymous": false,
      "inputs": [
        {
          "indexed": true,
          "internalType": "address",
          "name": "owner",
          "type": "address"
        },
        {
          "indexed": true,
          "internalType": "address",
          "name": "operator",
          "type": "address"
        },
        {
          "indexed": false,
          "internalType": "bool",
          "name": "approved",
          "type": "bool"
        }
      ],
      "name": "ApprovalForAll",
      "type": "event"
    },
    {
      "anonymous": false,
      "inputs": [
        {
          "indexed": false,
          "internalType": "uint256",
          "name": "_fromTokenId",
          "type": "uint256"
        },
        {
          "indexed": false,
          "internalType": "uint256",
          "name": "_toTokenId",
          "type": "uint256"
        }
      ],
      "name": "BatchMetadataUpdate",
      "type": "event"
    },
    {
      "anonymous": false,
      "inputs": [
        {
          "indexed": false,
          "internalType": "uint256",
          "name": "_tokenId",
          "type": "uint256"
        }
      ],
      "name": "MetadataUpdate",
      "type": "event"
    },
    {
      "anonymous": false,
      "inputs": [
        {
          "indexed": true,
          "internalType": "uint256",
          "name": "tokenId",
          "type": "uint256"
        },
        {
          "indexed": true,
          "internalType": "address",
          "name": "to",
          "type": "address"
        },
        {
          "indexed": false,
          "internalType": "uint256",
          "name": "price",
          "type": "uint256"
        },
        {
          "indexed": false,
          "internalType": "string",
          "name": "uri",
          "type": "string"
        }
      ],
      "name": "NFTMinted",
      "type": "event"
    },
    {
      "anonymous": false,
      "inputs": [
        {
          "indexed": true,
          "internalType": "address",
          "name": "from",
          "type": "address"
        },
        {
          "indexed": true,
          "internalType": "address",
          "name": "to",
          "type": "address"
        },
        {
          "indexed": true,
          "internalType": "uint256",
          "name": "tokenId",
          "type": "uint256"
        }
      ],
      "name": "Transfer",
      "type": "event"
    },
    {
      "inputs": [
        {
          "internalType": "address",
          "name": "to",
          "type": "address"
        },
        {
          "internalType": "uint256",
          "name": "tokenId",
          "type": "uint256"
        }
      ],
      "name": "approve",
      "outputs": [],
      "stateMutability": "nonpayable",
      "type": "function"
    },
    {
      "inputs": [
        {
          "internalType": "address",
          "name": "owner",
          "type": "address"
        }
      ],
      "name": "balanceOf",
      "outputs": [
        {
          "internalType": "uint256",
          "name": "",
          "type": "uint256"
        }
      ],
      "stateMutability": "view",
      "type": "function"
    },
    {
      "inputs": [
        {
          "internalType": "uint256",
          "name": "tokenId",
          "type": "uint256"
        }
      ],
      "name": "getApproved",
      "outputs": [
        {
          "internalType": "address",
          "name": "",
          "type": "address"
        }
      ],
      "stateMutability": "view",
      "type": "function"
    },
    {
      "inputs": [],
      "name": "getCurrentTokenId",
      "outputs": [
        {
          "internalType": "uint256",
          "name": "",
          "type": "uint256"
        }
      ],
      "stateMutability": "view",
      "type": "function"
    },
    {
      "inputs": [
        {
          "internalType": "uint256",
          "name": "_id",
          "type": "uint256"
        }
      ],
      "name": "getNFtPrice",
      "outputs": [
        {
          "internalType": "uint256",
          "name": "",
          "type": "uint256"
        }
      ],
      "stateMutability": "view",
      "type": "function"
    },
    {
      "inputs": [
        {
          "internalType": "uint256",
          "name": "_id",
          "type": "uint256"
        }
      ],
      "name": "getUri",
      "outputs": [
        {
          "internalType": "string",
          "name": "",
          "type": "string"
        }
      ],
      "stateMutability": "view",
      "type": "function"
    },
    {
      "inputs": [
        {
          "internalType": "address",
          "name": "_of",
          "type": "address"
        }
      ],
      "name": "getUserNFTs",
      "outputs": [
        {
          "internalType": "uint256[]",
          "name": "",
          "type": "uint256[]"
        }
      ],
      "stateMutability": "view",
      "type": "function"
    },
    {
      "inputs": [
        {
          "internalType": "address",
          "name": "owner",
          "type": "address"
        },
        {
          "internalType": "address",
          "name": "operator",
          "type": "address"
        }
      ],
      "name": "isApprovedForAll",
      "outputs": [
        {
          "internalType": "bool",
          "name": "",
          "type": "bool"
        }
      ],
      "stateMutability": "view",
      "type": "function"
    },
    {
      "inputs": [
        {
          "internalType": "address",
          "name": "_to",
          "type": "address"
        },
        {
          "internalType": "uint256",
          "name": "_price",
          "type": "uint256"
        },
        {
          "internalType": "string",
          "name": "_uri",
          "type": "string"
        }
      ],
      "name": "mint",
      "outputs": [],
      "stateMutability": "nonpayable",
      "type": "function"
    },
    {
      "inputs": [],
      "name": "name",
      "outputs": [
        {
          "internalType": "string",
          "name": "",
          "type": "string"
        }
      ],
      "stateMutability": "view",
      "type": "function"
    },
    {
      "inputs": [
        {
          "internalType": "uint256",
          "name": "tokenId",
          "type": "uint256"
        }
      ],
      "name": "ownerOf",
      "outputs": [
        {
          "internalType": "address",
          "name": "",
          "type": "address"
        }
      ],
      "stateMutability": "view",
      "type": "function"
    },
    {
      "inputs": [
        {
          "internalType": "address",
          "name": "from",
          "type": "address"
        },
        {
          "internalType": "address",
          "name": "to",
          "type": "address"
        },
        {
          "internalType": "uint256",
          "name": "tokenId",
          "type": "uint256"
        }
      ],
      "name": "safeTransferFrom",
      "outputs": [],
      "stateMutability": "nonpayable",
      "type": "function"
    },
    {
      "inputs": [
        {
          "internalType": "address",
          "name": "from",
          "type": "address"
        },
        {
          "internalType": "address",
          "name": "to",
          "type": "address"
        },
        {
          "internalType": "uint256",
          "name": "tokenId",
          "type": "uint256"
        },
        {
          "internalType": "bytes",
          "name": "data",
          "type": "bytes"
        }
      ],
      "name": "safeTransferFrom",
      "outputs": [],
      "stateMutability": "nonpayable",
      "type": "function"
    },
    {
      "inputs": [
        {
          "internalType": "address",
          "name": "operator",
          "type": "address"
        },
        {
          "internalType": "bool",
          "name": "approved",
          "type": "bool"
        }
      ],
      "name": "setApprovalForAll",
      "outputs": [],
      "stateMutability": "nonpayable",
      "type": "function"
    },
    {
      "inputs": [
        {
          "internalType": "bytes4",
          "name": "interfaceId",
          "type": "bytes4"
        }
      ],
      "name": "supportsInterface",
      "outputs": [
        {
          "internalType": "bool",
          "name": "",
          "type": "bool"
        }
      ],
      "stateMutability": "view",
      "type": "function"
    },
    {
      "inputs": [],
      "name": "symbol",
      "outputs": [
        {
          "internalType": "string",
          "name": "",
          "type": "string"
        }
      ],
      "stateMutability": "view",
      "type": "function"
    },
    {
      "inputs": [
        {
          "internalType": "uint256",
          "name": "tokenId",
          "type": "uint256"
        }
      ],
      "name": "tokenURI",
      "outputs": [
        {
          "internalType": "string",
          "name": "",
          "type": "string"
        }
      ],
      "stateMutability": "view",
      "type": "function"
    },
    {
      "inputs": [
        {
          "internalType": "address",
          "name": "from",
          "type": "address"
        },
        {
          "internalType": "address",
          "name": "to",
          "type": "address"
        },
        {
          "internalType": "uint256",
          "name": "tokenId",
          "type": "uint256"
        }
      ],
      "name": "transferFrom",
      "outputs": [],
      "stateMutability": "nonpayable",
      "type": "function"
    }
  ],
  "bytecode": "0x60806040523480156200001157600080fd5b506040518060400160405280600c81526020017f466c6f77657220546f6b656e00000000000000000000000000000000000000008152506040518060400160405280600381526020017f46544e000000000000000000000000000000000000000000000000000000000081525081600090816200008f919062000365565b508060019081620000a1919062000365565b50505033600760006101000a81548173ffffffffffffffffffffffffffffffffffffffff021916908373ffffffffffffffffffffffffffffffffffffffff1602179055506200044c565b600081519050919050565b7f4e487b7100000000000000000000000000000000000000000000000000000000600052604160045260246000fd5b7f4e487b7100000000000000000000000000000000000000000000000000000000600052602260045260246000fd5b600060028204905060018216806200016d57607f821691505b60208210810362000183576200018262000125565b5b50919050565b60008190508160005260206000209050919050565b60006020601f8301049050919050565b600082821b905092915050565b600060088302620001ed7fffffffffffffffffffffffffffffffffffffffffffffffffffffffffffffffff82620001ae565b620001f98683620001ae565b95508019841693508086168417925050509392505050565b6000819050919050565b6000819050919050565b600062000246620002406200023a8462000211565b6200021b565b62000211565b9050919050565b6000819050919050565b620002628362000225565b6200027a62000271826200024d565b848454620001bb565b825550505050565b600090565b6200029162000282565b6200029e81848462000257565b505050565b5b81811015620002c657620002ba60008262000287565b600181019050620002a4565b5050565b601f8211156200031557620002df8162000189565b620002ea846200019e565b81016020851015620002fa578190505b6200031262000309856200019e565b830182620002a3565b50505b505050565b600082821c905092915050565b60006200033a600019846008026200031a565b1980831691505092915050565b600062000355838362000327565b9150826002028217905092915050565b6200037082620000eb565b67ffffffffffffffff8111156200038c576200038b620000f6565b5b62000398825462000154565b620003a5828285620002ca565b600060209050601f831160018114620003dd5760008415620003c8578287015190505b620003d4858262000347565b86555062000444565b601f198416620003ed8662000189565b60005b828110156200041757848901518255600182019150602085019450602081019050620003f0565b8683101562000437578489015162000433601f89168262000327565b8355505b6001600288020188555050505b505050505050565b612813806200045c6000396000f3fe608060405234801561001057600080fd5b50600436106101165760003560e01c806370a08231116100a2578063b88d4fde11610071578063b88d4fde14610305578063c87b56dd14610321578063d3fc986414610351578063da0544aa1461036d578063e985e9c51461039d57610116565b806370a082311461026b57806395d89b411461029b578063a22cb465146102b9578063a7a82adc146102d557610116565b806323b872dd116100e957806323b872dd146101b557806342842e0e146101d157806352de4ee5146101ed578063561892361461021d5780636352211e1461023b57610116565b806301ffc9a71461011b57806306fdde031461014b578063081812fc14610169578063095ea7b314610199575b600080fd5b61013560048036038101906101309190611b48565b6103cd565b6040516101429190611b90565b60405180910390f35b61015361042e565b6040516101609190611c3b565b60405180910390f35b610183600480360381019061017e9190611c93565b6104c0565b6040516101909190611d01565b60405180910390f35b6101b360048036038101906101ae9190611d48565b6104dc565b005b6101cf60048036038101906101ca9190611d88565b6104f2565b005b6101eb60048036038101906101e69190611d88565b6105f4565b005b61020760048036038101906102029190611ddb565b610614565b6040516102149190611ec6565b60405180910390f35b6102256106ab565b6040516102329190611ef7565b60405180910390f35b61025560048036038101906102509190611c93565b6106b5565b6040516102629190611d01565b60405180910390f35b61028560048036038101906102809190611ddb565b6106c7565b6040516102929190611ef7565b60405180910390f35b6102a3610781565b6040516102b09190611c3b565b60405180910390f35b6102d360048036038101906102ce9190611f3e565b610813565b005b6102ef60048036038101906102ea9190611c93565b610829565b6040516102fc9190611ef7565b60405180910390f35b61031f600480360381019061031a91906120b3565b610849565b005b61033b60048036038101906103369190611c93565b610866565b6040516103489190611c3b565b60405180910390f35b61036b600480360381019061036691906121d7565b610979565b005b61038760048036038101906103829190611c93565b610ab8565b6040516103949190611c3b565b60405180910390f35b6103b760048036038101906103b29190612246565b610b60565b6040516103c49190611b90565b60405180910390f35b6000634906490660e01b7bffffffffffffffffffffffffffffffffffffffffffffffffffffffff1916827bffffffffffffffffffffffffffffffffffffffffffffffffffffffff19161480610427575061042682610bf4565b5b9050919050565b60606000805461043d906122b5565b80601f0160208091040260200160405190810160405280929190818152602001828054610469906122b5565b80156104b65780601f1061048b576101008083540402835291602001916104b6565b820191906000526020600020905b81548152906001019060200180831161049957829003601f168201915b5050505050905090565b60006104cb82610cd6565b506104d582610d5e565b9050919050565b6104ee82826104e9610d9b565b610da3565b5050565b600073ffffffffffffffffffffffffffffffffffffffff168273ffffffffffffffffffffffffffffffffffffffff16036105645760006040517f64a0ae9200000000000000000000000000000000000000000000000000000000815260040161055b9190611d01565b60405180910390fd5b60006105788383610573610d9b565b610db5565b90508373ffffffffffffffffffffffffffffffffffffffff168173ffffffffffffffffffffffffffffffffffffffff16146105ee578382826040517f64283d7b0000000000000000000000000000000000000000000000000000000081526004016105e5939291906122e6565b60405180910390fd5b50505050565b61060f83838360405180602001604052806000815250610849565b505050565b6060600960008373ffffffffffffffffffffffffffffffffffffffff1673ffffffffffffffffffffffffffffffffffffffff16815260200190815260200160002080548060200260200160405190810160405280929190818152602001828054801561069f57602002820191906000526020600020905b81548152602001906001019080831161068b575b50505050509050919050565b6000600854905090565b60006106c082610cd6565b9050919050565b60008073ffffffffffffffffffffffffffffffffffffffff168273ffffffffffffffffffffffffffffffffffffffff160361073a5760006040517f89c62b640000000000000000000000000000000000000000000000000000000081526004016107319190611d01565b60405180910390fd5b600360008373ffffffffffffffffffffffffffffffffffffffff1673ffffffffffffffffffffffffffffffffffffffff168152602001908152602001600020549050919050565b606060018054610790906122b5565b80601f01602080910402602001604051908101604052809291908181526020018280546107bc906122b5565b80156108095780601f106107de57610100808354040283529160200191610809565b820191906000526020600020905b8154815290600101906020018083116107ec57829003601f168201915b5050505050905090565b61082561081e610d9b565b8383610fcf565b5050565b6000600a6000838152602001908152602001600020600001549050919050565b6108548484846104f2565b6108608484848461113e565b50505050565b606061087182610cd6565b506000600660008481526020019081526020016000208054610892906122b5565b80601f01602080910402602001604051908101604052809291908181526020018280546108be906122b5565b801561090b5780601f106108e05761010080835404028352916020019161090b565b820191906000526020600020905b8154815290600101906020018083116108ee57829003601f168201915b50505050509050600061091c6112f5565b90506000815103610931578192505050610974565b60008251111561096657808260405160200161094e929190612359565b60405160208183030381529060405292505050610974565b61096f8461130c565b925050505b919050565b6008600081548092919061098c906123ac565b919050555060006008549050600960003373ffffffffffffffffffffffffffffffffffffffff1673ffffffffffffffffffffffffffffffffffffffff168152602001908152602001600020819080600181540180825580915050600190039060005260206000200160009091909190915055604051806040016040528084815260200183815250600a6000838152602001908152602001600020600082015181600001556020820151816001019081610a4591906125a0565b50905050610a5584600854611375565b610a616008548361146e565b8373ffffffffffffffffffffffffffffffffffffffff16817f463d85ceb93cc4d7ddf6727f8a3206619e95f36edb2a7851afccd49445dc90278585604051610aaa929190612672565b60405180910390a350505050565b6060600a60008381526020019081526020016000206001018054610adb906122b5565b80601f0160208091040260200160405190810160405280929190818152602001828054610b07906122b5565b8015610b545780601f10610b2957610100808354040283529160200191610b54565b820191906000526020600020905b815481529060010190602001808311610b3757829003601f168201915b50505050509050919050565b6000600560008473ffffffffffffffffffffffffffffffffffffffff1673ffffffffffffffffffffffffffffffffffffffff16815260200190815260200160002060008373ffffffffffffffffffffffffffffffffffffffff1673ffffffffffffffffffffffffffffffffffffffff16815260200190815260200160002060009054906101000a900460ff16905092915050565b60007f80ac58cd000000000000000000000000000000000000000000000000000000007bffffffffffffffffffffffffffffffffffffffffffffffffffffffff1916827bffffffffffffffffffffffffffffffffffffffffffffffffffffffff19161480610cbf57507f5b5e139f000000000000000000000000000000000000000000000000000000007bffffffffffffffffffffffffffffffffffffffffffffffffffffffff1916827bffffffffffffffffffffffffffffffffffffffffffffffffffffffff1916145b80610ccf5750610cce826114ca565b5b9050919050565b600080610ce283611534565b9050600073ffffffffffffffffffffffffffffffffffffffff168173ffffffffffffffffffffffffffffffffffffffff1603610d5557826040517f7e273289000000000000000000000000000000000000000000000000000000008152600401610d4c9190611ef7565b60405180910390fd5b80915050919050565b60006004600083815260200190815260200160002060009054906101000a900473ffffffffffffffffffffffffffffffffffffffff169050919050565b600033905090565b610db08383836001611571565b505050565b600080610dc184611534565b9050600073ffffffffffffffffffffffffffffffffffffffff168373ffffffffffffffffffffffffffffffffffffffff1614610e0357610e02818486611736565b5b600073ffffffffffffffffffffffffffffffffffffffff168173ffffffffffffffffffffffffffffffffffffffff1614610e9457610e45600085600080611571565b6001600360008373ffffffffffffffffffffffffffffffffffffffff1673ffffffffffffffffffffffffffffffffffffffff168152602001908152602001600020600082825403925050819055505b600073ffffffffffffffffffffffffffffffffffffffff168573ffffffffffffffffffffffffffffffffffffffff1614610f17576001600360008773ffffffffffffffffffffffffffffffffffffffff1673ffffffffffffffffffffffffffffffffffffffff168152602001908152602001600020600082825401925050819055505b846002600086815260200190815260200160002060006101000a81548173ffffffffffffffffffffffffffffffffffffffff021916908373ffffffffffffffffffffffffffffffffffffffff160217905550838573ffffffffffffffffffffffffffffffffffffffff168273ffffffffffffffffffffffffffffffffffffffff167fddf252ad1be2c89b69c2b068fc378daa952ba7f163c4a11628f55a4df523b3ef60405160405180910390a4809150509392505050565b600073ffffffffffffffffffffffffffffffffffffffff168273ffffffffffffffffffffffffffffffffffffffff160361104057816040517f5b08ba180000000000000000000000000000000000000000000000000000000081526004016110379190611d01565b60405180910390fd5b80600560008573ffffffffffffffffffffffffffffffffffffffff1673ffffffffffffffffffffffffffffffffffffffff16815260200190815260200160002060008473ffffffffffffffffffffffffffffffffffffffff1673ffffffffffffffffffffffffffffffffffffffff16815260200190815260200160002060006101000a81548160ff0219169083151502179055508173ffffffffffffffffffffffffffffffffffffffff168373ffffffffffffffffffffffffffffffffffffffff167f17307eab39ab6107e8899845ad3d59bd9653f200f220920489ca2b5937696c31836040516111319190611b90565b60405180910390a3505050565b60008373ffffffffffffffffffffffffffffffffffffffff163b11156112ef578273ffffffffffffffffffffffffffffffffffffffff1663150b7a02611182610d9b565b8685856040518563ffffffff1660e01b81526004016111a494939291906126f7565b6020604051808303816000875af19250505080156111e057506040513d601f19601f820116820180604052508101906111dd9190612758565b60015b611264573d8060008114611210576040519150601f19603f3d011682016040523d82523d6000602084013e611215565b606091505b50600081510361125c57836040517f64a0ae920000000000000000000000000000000000000000000000000000000081526004016112539190611d01565b60405180910390fd5b805181602001fd5b63150b7a0260e01b7bffffffffffffffffffffffffffffffffffffffffffffffffffffffff1916817bffffffffffffffffffffffffffffffffffffffffffffffffffffffff1916146112ed57836040517f64a0ae920000000000000000000000000000000000000000000000000000000081526004016112e49190611d01565b60405180910390fd5b505b50505050565b606060405180602001604052806000815250905090565b606061131782610cd6565b5060006113226112f5565b90506000815111611342576040518060200160405280600081525061136d565b8061134c846117fa565b60405160200161135d929190612359565b6040516020818303038152906040525b915050919050565b600073ffffffffffffffffffffffffffffffffffffffff168273ffffffffffffffffffffffffffffffffffffffff16036113e75760006040517f64a0ae920000000000000000000000000000000000000000000000000000000081526004016113de9190611d01565b60405180910390fd5b60006113f583836000610db5565b9050600073ffffffffffffffffffffffffffffffffffffffff168173ffffffffffffffffffffffffffffffffffffffff16146114695760006040517f73c6ac6e0000000000000000000000000000000000000000000000000000000081526004016114609190611d01565b60405180910390fd5b505050565b8060066000848152602001908152602001600020908161148e91906125a0565b507ff8e1a15aba9398e019f0b49df1a4fde98ee17ae345cb5f6b5e2c27f5033e8ce7826040516114be9190611ef7565b60405180910390a15050565b60007f01ffc9a7000000000000000000000000000000000000000000000000000000007bffffffffffffffffffffffffffffffffffffffffffffffffffffffff1916827bffffffffffffffffffffffffffffffffffffffffffffffffffffffff1916149050919050565b60006002600083815260200190815260200160002060009054906101000a900473ffffffffffffffffffffffffffffffffffffffff169050919050565b80806115aa5750600073ffffffffffffffffffffffffffffffffffffffff168273ffffffffffffffffffffffffffffffffffffffff1614155b156116de5760006115ba84610cd6565b9050600073ffffffffffffffffffffffffffffffffffffffff168373ffffffffffffffffffffffffffffffffffffffff161415801561162557508273ffffffffffffffffffffffffffffffffffffffff168173ffffffffffffffffffffffffffffffffffffffff1614155b801561163857506116368184610b60565b155b1561167a57826040517fa9fbf51f0000000000000000000000000000000000000000000000000000000081526004016116719190611d01565b60405180910390fd5b81156116dc57838573ffffffffffffffffffffffffffffffffffffffff168273ffffffffffffffffffffffffffffffffffffffff167f8c5be1e5ebec7d5bd14f71427d1e84f3dd0314c0f7b2291e5b200ac8c7c3b92560405160405180910390a45b505b836004600085815260200190815260200160002060006101000a81548173ffffffffffffffffffffffffffffffffffffffff021916908373ffffffffffffffffffffffffffffffffffffffff16021790555050505050565b6117418383836118c8565b6117f557600073ffffffffffffffffffffffffffffffffffffffff168373ffffffffffffffffffffffffffffffffffffffff16036117b657806040517f7e2732890000000000000000000000000000000000000000000000000000000081526004016117ad9190611ef7565b60405180910390fd5b81816040517f177e802f0000000000000000000000000000000000000000000000000000000081526004016117ec929190612785565b60405180910390fd5b505050565b60606000600161180984611989565b01905060008167ffffffffffffffff81111561182857611827611f88565b5b6040519080825280601f01601f19166020018201604052801561185a5781602001600182028036833780820191505090505b509050600082602001820190505b6001156118bd578080600190039150507f3031323334353637383961626364656600000000000000000000000000000000600a86061a8153600a85816118b1576118b06127ae565b5b04945060008503611868575b819350505050919050565b60008073ffffffffffffffffffffffffffffffffffffffff168373ffffffffffffffffffffffffffffffffffffffff161415801561198057508273ffffffffffffffffffffffffffffffffffffffff168473ffffffffffffffffffffffffffffffffffffffff16148061194157506119408484610b60565b5b8061197f57508273ffffffffffffffffffffffffffffffffffffffff1661196783610d5e565b73ffffffffffffffffffffffffffffffffffffffff16145b5b90509392505050565b600080600090507a184f03e93ff9f4daa797ed6e38ed64bf6a1f01000000000000000083106119e7577a184f03e93ff9f4daa797ed6e38ed64bf6a1f01000000000000000083816119dd576119dc6127ae565b5b0492506040810190505b6d04ee2d6d415b85acef81000000008310611a24576d04ee2d6d415b85acef81000000008381611a1a57611a196127ae565b5b0492506020810190505b662386f26fc100008310611a5357662386f26fc100008381611a4957611a486127ae565b5b0492506010810190505b6305f5e1008310611a7c576305f5e1008381611a7257611a716127ae565b5b0492506008810190505b6127108310611aa1576127108381611a9757611a966127ae565b5b0492506004810190505b60648310611ac45760648381611aba57611ab96127ae565b5b0492506002810190505b600a8310611ad3576001810190505b80915050919050565b6000604051905090565b600080fd5b600080fd5b60007fffffffff0000000000000000000000000000000000000000000000000000000082169050919050565b611b2581611af0565b8114611b3057600080fd5b50565b600081359050611b4281611b1c565b92915050565b600060208284031215611b5e57611b5d611ae6565b5b6000611b6c84828501611b33565b91505092915050565b60008115159050919050565b611b8a81611b75565b82525050565b6000602082019050611ba56000830184611b81565b92915050565b600081519050919050565b600082825260208201905092915050565b60005b83811015611be5578082015181840152602081019050611bca565b60008484015250505050565b6000601f19601f8301169050919050565b6000611c0d82611bab565b611c178185611bb6565b9350611c27818560208601611bc7565b611c3081611bf1565b840191505092915050565b60006020820190508181036000830152611c558184611c02565b905092915050565b6000819050919050565b611c7081611c5d565b8114611c7b57600080fd5b50565b600081359050611c8d81611c67565b92915050565b600060208284031215611ca957611ca8611ae6565b5b6000611cb784828501611c7e565b91505092915050565b600073ffffffffffffffffffffffffffffffffffffffff82169050919050565b6000611ceb82611cc0565b9050919050565b611cfb81611ce0565b82525050565b6000602082019050611d166000830184611cf2565b92915050565b611d2581611ce0565b8114611d3057600080fd5b50565b600081359050611d4281611d1c565b92915050565b60008060408385031215611d5f57611d5e611ae6565b5b6000611d6d85828601611d33565b9250506020611d7e85828601611c7e565b9150509250929050565b600080600060608486031215611da157611da0611ae6565b5b6000611daf86828701611d33565b9350506020611dc086828701611d33565b9250506040611dd186828701611c7e565b9150509250925092565b600060208284031215611df157611df0611ae6565b5b6000611dff84828501611d33565b91505092915050565b600081519050919050565b600082825260208201905092915050565b6000819050602082019050919050565b611e3d81611c5d565b82525050565b6000611e4f8383611e34565b60208301905092915050565b6000602082019050919050565b6000611e7382611e08565b611e7d8185611e13565b9350611e8883611e24565b8060005b83811015611eb9578151611ea08882611e43565b9750611eab83611e5b565b925050600181019050611e8c565b5085935050505092915050565b60006020820190508181036000830152611ee08184611e68565b905092915050565b611ef181611c5d565b82525050565b6000602082019050611f0c6000830184611ee8565b92915050565b611f1b81611b75565b8114611f2657600080fd5b50565b600081359050611f3881611f12565b92915050565b60008060408385031215611f5557611f54611ae6565b5b6000611f6385828601611d33565b9250506020611f7485828601611f29565b9150509250929050565b600080fd5b600080fd5b7f4e487b7100000000000000000000000000000000000000000000000000000000600052604160045260246000fd5b611fc082611bf1565b810181811067ffffffffffffffff82111715611fdf57611fde611f88565b5b80604052505050565b6000611ff2611adc565b9050611ffe8282611fb7565b919050565b600067ffffffffffffffff82111561201e5761201d611f88565b5b61202782611bf1565b9050602081019050919050565b82818337600083830152505050565b600061205661205184612003565b611fe8565b90508281526020810184848401111561207257612071611f83565b5b61207d848285612034565b509392505050565b600082601f83011261209a57612099611f7e565b5b81356120aa848260208601612043565b91505092915050565b600080600080608085870312156120cd576120cc611ae6565b5b60006120db87828801611d33565b94505060206120ec87828801611d33565b93505060406120fd87828801611c7e565b925050606085013567ffffffffffffffff81111561211e5761211d611aeb565b5b61212a87828801612085565b91505092959194509250565b600067ffffffffffffffff82111561215157612150611f88565b5b61215a82611bf1565b9050602081019050919050565b600061217a61217584612136565b611fe8565b90508281526020810184848401111561219657612195611f83565b5b6121a1848285612034565b509392505050565b600082601f8301126121be576121bd611f7e565b5b81356121ce848260208601612167565b91505092915050565b6000806000606084860312156121f0576121ef611ae6565b5b60006121fe86828701611d33565b935050602061220f86828701611c7e565b925050604084013567ffffffffffffffff8111156122305761222f611aeb565b5b61223c868287016121a9565b9150509250925092565b6000806040838503121561225d5761225c611ae6565b5b600061226b85828601611d33565b925050602061227c85828601611d33565b9150509250929050565b7f4e487b7100000000000000000000000000000000000000000000000000000000600052602260045260246000fd5b600060028204905060018216806122cd57607f821691505b6020821081036122e0576122df612286565b5b50919050565b60006060820190506122fb6000830186611cf2565b6123086020830185611ee8565b6123156040830184611cf2565b949350505050565b600081905092915050565b600061233382611bab565b61233d818561231d565b935061234d818560208601611bc7565b80840191505092915050565b60006123658285612328565b91506123718284612328565b91508190509392505050565b7f4e487b7100000000000000000000000000000000000000000000000000000000600052601160045260246000fd5b60006123b782611c5d565b91507fffffffffffffffffffffffffffffffffffffffffffffffffffffffffffffffff82036123e9576123e861237d565b5b600182019050919050565b60008190508160005260206000209050919050565b60006020601f8301049050919050565b600082821b905092915050565b6000600883026124567fffffffffffffffffffffffffffffffffffffffffffffffffffffffffffffffff82612419565b6124608683612419565b95508019841693508086168417925050509392505050565b6000819050919050565b600061249d61249861249384611c5d565b612478565b611c5d565b9050919050565b6000819050919050565b6124b783612482565b6124cb6124c3826124a4565b848454612426565b825550505050565b600090565b6124e06124d3565b6124eb8184846124ae565b505050565b5b8181101561250f576125046000826124d8565b6001810190506124f1565b5050565b601f82111561255457612525816123f4565b61252e84612409565b8101602085101561253d578190505b61255161254985612409565b8301826124f0565b50505b505050565b600082821c905092915050565b600061257760001984600802612559565b1980831691505092915050565b60006125908383612566565b9150826002028217905092915050565b6125a982611bab565b67ffffffffffffffff8111156125c2576125c1611f88565b5b6125cc82546122b5565b6125d7828285612513565b600060209050601f83116001811461260a57600084156125f8578287015190505b6126028582612584565b86555061266a565b601f198416612618866123f4565b60005b828110156126405784890151825560018201915060208501945060208101905061261b565b8683101561265d5784890151612659601f891682612566565b8355505b6001600288020188555050505b505050505050565b60006040820190506126876000830185611ee8565b81810360208301526126998184611c02565b90509392505050565b600081519050919050565b600082825260208201905092915050565b60006126c9826126a2565b6126d381856126ad565b93506126e3818560208601611bc7565b6126ec81611bf1565b840191505092915050565b600060808201905061270c6000830187611cf2565b6127196020830186611cf2565b6127266040830185611ee8565b818103606083015261273881846126be565b905095945050505050565b60008151905061275281611b1c565b92915050565b60006020828403121561276e5761276d611ae6565b5b600061277c84828501612743565b91505092915050565b600060408201905061279a6000830185611cf2565b6127a76020830184611ee8565b9392505050565b7f4e487b7100000000000000000000000000000000000000000000000000000000600052601260045260246000fdfea2646970667358221220824da0a1e70ff5cfef3668d6e0307abcea40de37a1d9b398f18c4ea0a2c25eb864736f6c63430008180033",
  "linkReferences": {},
  "deployedLinkReferences": {}
}